:100000000C94C2030C94DF030C94DF030C94DF0305
:100010000C94DF030C94DF030C94DF030C94DF03D8
:100020000C94DF030C94DF030C94DA330C94C23489
:100030000C948F330C94DF030C94DF030C94DF03D8
:100040000C94DF030C94DF030C94DF030C94DF03A8
:100050000C94DF030C94B6330C94DF030C94DF0391
:100060000C94DF030C94DF030C94DF030C94DF0388
:100070000C94DF030C94DF030C94DF030C94DF0378
:100080000C94DF030C94DF030C94DF030C94DF0368
:100090000C94DF030C94DF030C94DF030C94DF0358
:1000A0000C94DF030C94DF030C94DF03050109803B
:1000B000A101850319012AB700150126B700950192
:1000C00075108100C0050C0901A101850419012AE0
:1000D000A002150126A002950175108100C005013E
:1000E0000906A1018506050719E029E71500250184
:1000F0009508750181020507190029EF15002501F2
:1001000095F075018102050819012905950575010C
:100110009102950175039101C00660FF0961A1017B
:100120000962150026FF00952075088102096315F4
:100130000026FF00952075089102C005010906A15F
:1001400001050719E029E7150025019508750181CA
:10015000029501750881010507190029FF15002680
:10016000FF0095067508810005081901290515008D
:100170002501950575019102950175039101C00056
:10018000000000000000000000000000000000006F
:10019000000000000000000000000000000000005F
:1001A0000000007E0F00D4FFFFFFC70000007800B2
:1001B000000000000000002A2B28000000000000C2
:1001C0000000000000000000000029000000002CDA
:1001D0001E3420212224342627252E362D37382779
:1001E0001E1F202122232425263333362E37381F85
:1001F0000405060708090A0B0C0D0E0F1011121347
:100200001415161718191A1B1C1D2F3130232D35E4
:100210000405060708090A0B0C0D0E0F1011121326
:100220001415161718191A1B1C1D2F3130354C09BF
:10023000025B00030100A0FA0904000001030101B0
:100240000009211101000122440007058103080073
:10025000010904010002030000000921110100014D
:100260002222000705820320000107050303200066
:10027000010904020001030000000921110100012D
:10028000226D000705840320000112010002000016
:100290000008EDFE64640100010203011C03760006
:1002A000690061006C003A006600360034006300AB
:1002B000320062003300630000000E03540061004E
:1002C0006E0075006B00690000000A0353006500B2
:1002D0007400680000000403090414001A000800F8
:1002E000150017001C0018000C00120013002A0053
:1002F00004001600070009000A000B000D000E00A4
:100300000F0033003400E1001D001B00060019003F
:100310000500110010003600370028002B002900CE
:10032000E000E20021522C002C0000002252E300E9
:1003300000001E001F0020002100220023002400D6
:100340002500260027002A003A003B003C003D0023
:100350003E003F00010001002D002E003100E100B1
:1003600040004100420043004400450001002F00CE
:10037000300028002B002900E000E20001002C00E2
:100380002C0000000100E3000000AC00AE00AB0058
:100390000100010001000100010001000100520004
:1003A0003A003B003C003D003E003F0001000100E0
:1003B000010050004F00E1003F00400041004200BA
:1003C000430044004500AA00A9005100390029005B
:1003D000E000E20001002C002C0000000100E3001E
:1003E00000002223252628292A2C2D2F30323335B0
:1003F00036383A3B3D3E4042434547494A4C4E50D1
:1004000051535557595A5C5E6062646668696B6DFA
:100410006F71737577797B7D7F81838587898A8CFE
:100420008E90929496989A9C9E9FA1A3A5A7A8AA05
:10043000ACAEAFB1B3B4B6B8B9BBBCBEBFC1C2C33A
:10044000C5C6C7C9CACBCCCDCED0D1D2D2D3D4D5D4
:10045000D6D7D7D8D9D9DADADBDBDBDCDCDCDCDCFD
:10046000DDDDDDDDDCDCDCDCDCDBDBDBDADAD9D9D5
:10047000D8D7D7D6D5D4D3D2D2D1D0CECDCCCBCA63
:10048000C9C7C6C5C3C2C1BFBEBCBBB9B8B6B4B389
:10049000B1AFAEACAAA8A7A5A3A19F9E9C9A98961F
:1004A0009492908E8C8A89878583817F7D7B7977F2
:1004B0007573716F6D6B6968666462605E5C5A59D2
:1004C00057555351504E4C4A4947454342403E3D93
:1004D0003B3A3836353332302F2D2C2A2928262521
:1004E0002322FFAA7F554000010101010101010102
:1004F00001020202020202020202030303030303D7
:1005000003030404040404040405050505050606A4
:100510000606060707070707080808080909090962
:100520000A0A0A0B0B0B0C0C0C0D0D0D0E0E0E0F08
:100530000F0F101011111112121313141415151698
:10054000161717181819191A1A1B1B1C1D1D1E1E09
:100550001F2020212222232424252626272829295A
:100560002A2B2C2D2D2E2F30313232333435363785
:1005700038393A3B3C3D3E3F404142434445464783
:1005800048494A4C4D4E4F50515354555658595A5C
:100590005B5D5E5F616264656668696B6C6D6F7000
:1005A00072737577787A7B7D7E8082838587888A6F
:1005B0008C8E8F91939596989A9C9EA0A2A3A5A7A6
:1005C000A9ABADAFB1B3B5B7BABCBEC0C2C4C6C9A2
:1005D000CBCDCFD1D4D6D8DBDDDFE2E4E7E9EBEE5B
:1005E000F0F3F5F8FAFDFF1E0F0500047F3F1F64CE
:1005F0003214643214783C1E1E140A0501000100F6
:1006000018041F2B352B00000200020014041F2BBE
:10061000352B00000300010019041F2B352B0000AF
:1006200004000200FE031F2B352B2D0A05000100DC
:100630001A041F2B352B00000600020000041F2B9C
:10064000352B00000700020016041F2B352B00007D
:10065000080001001B041F2B352B000012000200B4
:100660001C041F2B352B0000130002001E041F2B3F
:10067000352B00001400010020041F2B352B000037
:10068000150000000000360A41120000FD377A58BC
:100690005A000004E6D6B44602002101160000000C
:1006A000742FE5A3E001AA00B85D003D888986D3D8
:1006B000DC0AE842C324925842588FD8E75CA0D2A3
:1006C000616E26E888019A676C7887BC8D3709EAE5
:1006D0000E1459A53C79858662BD37FBEEA0ADF6B8
:1006E0003102D7235845D735EBEABCD1A3D4C5C5D1
:1006F000FCB182DF9B45F2DCDCCCD9C77A064E87A1
:1007000085FD2DDD8A5A0AF9DC74EB7DF11D0F3B66
:1007100022D5381936D0CE5C707391F851C8C355C4
:100720007409D3ED1C635CB2C1336937CCC3303A72
:1007300074CFB033A175FE69527682416B7F671822
:10074000262A96E208498C8FCDC10973E1C52E8413
:10075000F7DA3B7949985C4FC8DFA3DA251D37BF2C
:10076000B7048000AB8120B3752CB68F0001D40193
:10077000AB0300000983B6EFB1C467FB02000000C1
:100780000004595A11241FBECFEFDAE0DEBFCDBFFF
:1007900024E0AEEAB1E001C01D92A632B207E1F753
:1007A00011E0A0E0B1E0E2E3FFE602C005900D92A7
:1007B000AE3AB107D9F70E94FF2B0C9438370C944E
:1007C00000009C01FB019A9581159F4120F5D901FC
:1007D000AA27B270832F8170B90166277470A901AE
:1007E0004427587034FF0DC08295807FAB2B09F0F1
:1007F0008062672B09F08064452B09F080680995B9
:100800000895AB2B09F08260672B09F08460452BBB
:10081000B1F38860F4CF80E0F2CF282F92959F70DB
:10082000963091F060F4925F9F70923030F481E0E6
:10083000203F79F030F4283E30F080E008959A5F50
:10084000F3CF243FD1F7089581E0283EE0F3213F24
:10085000F9CF08958093FC0308958093FD030895D4
:1008600021E030E001C0220F8A95EAF78091FD0374
:10087000822B0E942D04089521E030E0A90102C0DE
:10088000440F551F8A95E2F7CA0180959091FD03A8
:1008900089230E942D040895292F943098F58B30D8
:1008A00088F590E03BE0239F800D911D1124282FB7
:1008B000277041E001C0440F2A95EAF723E096959E
:1008C00087952A95E1F7FC01EE0FFF1FE80FF91F4E
:1008D000E25FFC4F20E030E070E05191DF011197C2
:1008E000CB01022E02C0969587950A94E2F781709B
:1008F00081958527842385278C932F5F3F4F233055
:10090000310559F70895292F943078F58B3068F523
:1009100090E03BE0239F800D911D1124682F6770AC
:1009200023E0969587952A95E1F7FC01EE0FFF1FCE
:10093000E80FF91FE25FFC4F40E050E080E02191BA
:1009400030E0062E02C0369527950A94E2F7217012
:100950003327042E01C0220F0A94EAF7822B4F5F3F
:100960005F4F4330510559F7089580E00895909105
:10097000FD0321E030E0F90101C0EE0F8A95EAF7AE
:10098000D90102C0AA0FBB1F6A95E2F7EA2B01C08A
:10099000220F4A95EAF7892F8E23E81305C0892F85
:1009A000822B0E942D0408952095822F8923F9CF50
:1009B0008091BC029091BB02981301C008958F5F93
:1009C0008770FACF90916D038095892380936D0392
:1009D000282F2770211111C0891779F090912304D5
:1009E00092FF0BC08695869586950E943C041092D6
:1009F0006D0310926F0310926E03089590916A0335
:100A0000982B90936A030895982F909580916A038C
:100A1000892380936A03089580916903882331F0C4
:100A20001092690310926803109267030895803E44
:100A30009105D1F1C8F48133910509F47FC048F4E0
:100A40008932910509F46FC08A32910509F47DC09D
:100A5000089589339105E1F082389105C9F0853315
:100A6000910509F45BC00895843E9105D1F148F4E5
:100A7000823E910531F1833E910541F181EE90E096
:100A80000895863E9105C1F1873E9105E1F10895F3
:100A9000209122042370211165C02091230423FF9B
:100AA00014C089E290E008952091220420FD43C003
:100AB0003091230430FF09C024FF4EC080E090E055
:100AC00008952091220422FDF7CF08952091220459
:100AD00022FD45C03091230430FD44C024FFF5CFF2
:100AE000EDCF2091230421FFF0CF8091220484FDDB
:100AF000E5CF87EE90E008952091220423FFE5CF13
:100B000024FDDCCFF6CF2091220423FD2EC03091AE
:100B1000230431FFE3CF84EE90E008952091220476
:100B200025FFD3CFBECF2091220425FD21C02091E7
:100B3000230423FFCACF89E390E008952091220483
:100B400026FFC3CF8AE290E008952091220426FF79
:100B5000BCCF81E390E0089583EE90E0089582EEAB
:100B600090E0089580EE90E0089586EE90E008957C
:100B700085E390E0AACF9091220492FF10C041E05B
:100B8000282F2471243009F040E031E0282F28710B
:100B9000283009F030E0431711F02CE0822793FF52
:100BA00010C041E0282F2471243109F040E031E0E9
:100BB000282F2871283109F030E0431711F02CE07C
:100BC00082273091230430FF10C051E0282F21717B
:100BD000213009F050E041E0282F2871283009F039
:100BE00040E0541711F029E0822731FF10C041E0A6
:100BF000282F2171213109F040E031E0282F2871A0
:100C0000283109F030E0431711F029E0822794FDE4
:100C1000877E08951F93CF93DF930E941705EC0101
:100C2000811522E5920708F053C0811540E594072D
:100C300008F0DDC0803E9105F8F48D3C910508F088
:100C4000AEC0883A910580F4853A910508F099C0C4
:100C50008130910521F00497813A910550F4CE013D
:100C6000DF91CF911F910895885A91094B9708F40D
:100C70008BC0C0E0D0E0F3CF811550E49507F8F4C5
:100C8000C11580E2D80708F0CBC0C83ED10538F3C3
:100C9000CE019A9581159F4160F78D2F0E94BB056B
:100CA000182FCE0199270E941705212F30E0322FEF
:100CB0002227E901CC27DF71C82BD92BD0CF992768
:100CC0000E941705CC27DF70C82BD92BD06AC7CF5D
:100CD000803842E59407C8F5803652E5950708F05C
:100CE00067C0C03482E5D807B0F08C2F8695869512
:100CF000877020E2829FC0011124C37021E030E0A0
:100D0000A90102C0440F551FCA95E2F7EA01C82B9A
:100D1000D92BDC68A4CFC03252E5D50708F041C01A
:100D20008C2F8695869520E2829FC0011124C37086
:100D300021E030E0A90102C0440F551FCA95E2F737
:100D4000EA01C82BD92BDD688ACF803C52E5950794
:100D500060F48F71C03AD24508F03FC090E0982F00
:100D60008827EC01C46FD06A7ACF805C9245809767
:100D700008F07FCFDC2FCC27CC27DF71C06FD06A83
:100D80006ECFA497D0646BCFC85AD0E0CC0FDD1FD4
:100D9000C858DE4F0990D881C02DD46460CFD0658B
:100DA0005ECFCF71D0E0DC2FCC27C16FD06A57CF98
:100DB00086958695877020E2829FC0011124C370BA
:100DC00021E030E0A90102C0440F551FCA95E2F7A7
:100DD000EA01C82BD92BDA6842CF0E94BB05C82F85
:100DE000D0E0DC2FCC27CC27DF71D06238CF8F71D9
:100DF0000E94BB0565E0D695C7956A95E1F7CF706F
:100E0000D0E0DC2FCC27282F30E084FF05C054E051
:100E1000220F331F5A95E1F7C22BD32BD0691FCF76
:100E20008D2F8F710E94BB05182FCE0199270E942C
:100E30001705212F30E0322F222722273F71282B40
:100E4000392BE901D2CF80E00895F894E82FE2959C
:100E5000EF70F0E041A18F7021E030E0B90102C0F5
:100E6000660F771F8A95E2F7CB01962F9095942312
:100E700091A392A1892B82A3789408950895A0E06C
:100E8000B0E0E5E4F7E00C947335E82FF0E0E951C9
:100E9000FB4F711109C0E4918E2F7E2F6E2FCDB7BD
:100EA000DEB7E8E00C948F35262F30E0C72FD0E076
:100EB000F491EF2F86E0829F8001839F100D112413
:100EC000EE24EA94F12CC801B7010E942535AB014C
:100ED000220F331F65E5649FC001659F900D1124AB
:100EE000281B390B822F880F280FC7018C1B9D0BE5
:100EF000F89FD001F99FB00D11248B2F2C9FB001CA
:100F00002D9F700D1124672F77276701C61AD70A06
:100F1000B601F69F6001F79FD00C1124B701621B48
:100F200071099B012C9FB0012D9F700D3C9F700D8E
:100F30001124672F77279701261B370BF29FE001BB
:100F4000F39FD00D11247D2F43305105C9F00C3F84
:100F500093E0190758F441305105B1F04230510582
:100F600009F09CCFEB2F8D2F7F2F98CF4430510568
:100F700071F04630510509F491CF7B2F8D2D8ECF26
:100F80007D2DEB2F8F2F8ACF7F2FED2D87CFED2F4C
:100F90007B2FF8CFCF93982F762F842FC22F692FD6
:100FA0000E943F07472F282F8C2F90E00E94AF0A06
:100FB000CF91089580915F03843028F4837084601A
:100FC00080935F0308958C3AE8F38370886AF8CFC2
:100FD000CF93DF9380915F0380FD0CC0C0E0D0E031
:100FE00020E040E060E0CE010E94AF0A2196C530CB
:100FF000D105B1F70E94250EDF91CF910895FF92A0
:101000000F931F93CF93DF93182F062FF42E809109
:101010005F0380FF0EC0C0E0D0E02F2D402F612F76
:10102000CE010E94AF0A2196C530D105B1F70E94CA
:10103000E807CDB7DEB7E5E00C949235CF93DF93A8
:10104000EC01909162034C81842F81708111892F72
:10105000642F62706111692F44704111492F0E9401
:10106000FF078C8190E00196877099278C83DF9130
:10107000CF910895982F762F842F20915F0320FF22
:1010800009C0692F0E943F07962F672F482F892F8D
:101090000E94FF070895CF93DF93EC01EFE5F3E0A3
:1010A000438162818C810E943A088C818F5F8C839E
:1010B000DF91CF910895CF93DF93EC01EC81F0E0C5
:1010C000EE51FC4F4491EFE5F3E0628181810E9493
:1010D0003A088C818F5F8C83DF91CF910895FF92C6
:1010E0000F931F93CF93DF93EC01F12C00E010E0FE
:1010F0008C81980140916203609161038F0D0E9481
:10110000CA070F5F1F4F83E3F80E0530110581F703
:101110000E94E8079A818C8190FF07C08F5F8C83C3
:10112000CDB7DEB7E5E00C9492358150F8CFEF9261
:10113000FF920F931F93CF93DF93FC018281FF24D3
:10114000F39480FF02C0FF24FA94C0E0D0E020E0D6
:1011500040E060E0CE010E94AF0A04E010E0E12C24
:10116000809162028E0D8630BCF165E00E941735D9
:10117000892F082E000C990BC817D90791F480917C
:101180006203809FA001819F500D112455954795C2
:10119000559547959E0160916103809160030E947F
:1011A000CA07EF0C0150110901151105C9F6219666
:1011B000C530D10561F60E94E80780916202F1E036
:1011C000FF120EC0882391F0815080936202CDB748
:1011D000DEB7E6E00C94913587FFCBCF8B5FC9CFAC
:1011E00090E00196BE010E943935EFCF84E0EDCF4B
:1011F000CF93DF93C0E0D0E020E040E060E0CE019C
:101200000E94AF0A2196C530D105B1F7C0E0D0E009
:1012100080916102082E000C990BC817D9076CF158
:1012200080910601082E000C990B8C179D072CF15C
:101230009E014091620360916103809160030E946E
:10124000CA072196C530D10519F70E94E807809199
:10125000050190916102980F90936102209106011F
:10126000280F20930601121614F494301CF0819577
:1012700080930501DF91CF91089520E040E060E088
:10128000CE010E94AF0ADDCFAEE0B0E0EAE4F9E0C3
:101290000C9474358D879E87AD85BE8514961C9100
:1012A000212F30E0D9010E9429379B01AC010E9417
:1012B000F43669837A838B839C83E0E2F0E0E11B60
:1012C000F109A5E5B0E09B01AC010E94F436698705
:1012D0007A878B879C879F01DF010E945A359B018B
:1012E000AC010E94FF366D837E838F8398879B01BC
:1012F000AC0189819A81AB81BC81280F391F4A1FBB
:101300005B1F69857A858B859C850E940737022F34
:1013100030E00A32C0F5A901440F551F420F531F98
:1013200055954795142F1095E12CF12C85E5D82E75
:10133000D01A8E2D8270811134C08D2D9701412FCE
:10134000609161030E94CA079FEFE91AF90AA5E0BC
:10135000EA16F10471F70E94E807ED85FE85948195
:1013600081E0992319F0903219F48FEF80930401F2
:1013700080910401890FAD85BE8514968C932E96BD
:10138000E7E00C94903585E590E0821B930BAC016F
:10139000440F551F480F591F57FFC2CF4F5F5F4F74
:1013A000BFCF802FCBCF0F931F93CF93DF93EC0151
:1013B00020E030E09C8160916103809160038901AD
:1013C0000F5F1F4F223031054CF4409162039111A1
:1013D00001C040E00E94CA079801ECCF409162032F
:1013E000911140E00E94CA0798010530110511F7DC
:1013F0000E94E8078C8190E00196817099278C8388
:10140000DF91CF911F910F91089581152CE79207DD
:1014100041F420911E0130911F01232B11F480E033
:1014200090E00895EAE2F3E04FE25AE25783468300
:1014300026E53AE2318720878BEC9AE29387828710
:1014400017861686578B468B318F208F938F828F0E
:1014500081E090E0978F868F08958091FE039091B0
:10146000FF0390931D0180931C010895A0E0B0E05C
:10147000ECE3FAE00C946F35FB018FEF9FEF443003
:10148000510508F465C04091220441FB882780F98A
:1014900090E0880F991F42FBAA24A0F8B12CAA0C57
:1014A000BB1CAA0CBB1C8A299B2940FB882480F802
:1014B000912C8829992943FBCC24C0F8D12C53E0E6
:1014C000CC0CDD1C5A95E1F78C299D2944FBEE24B8
:1014D000E0F8F12C64E0EE0CFF1C6A95E1F78E2930
:1014E0009F2945FB002700F910E075E0000F111F50
:1014F0007A95E1F7802B912B46FB222720F9C22F0A
:1015000020E0D22FA6E0CC0FDD1FAA95E1F78C2BAF
:101510009D2B47FB442740F920E8429FA00111245E
:10152000842B952B20912304322F3170932B2695F9
:101530002170B22FBB0FA0E08A2B9B2B092E000C31
:10154000AA0BBB0B80839183A283B38380E090E0DE
:10155000CDB7DEB7ECE00C948B35519A0895FC01C1
:10156000EE0FFF1FE80FF91FE75EFD4F6183408319
:1015700022830895AC0123E0969587952A95E1F79B
:101580008E719927FC01E750FE4F0190F081E02D0C
:101590004F70552721E030E002C0220F331F4A95DB
:1015A000E2F7662341F0E22BF32B87509E4FDC01DC
:1015B000ED93FC93089520953095E223F323F5CF26
:1015C00010928E0310928D03E0E7F3E08581811184
:1015D00002C014821682379683E0E538F807B1F727
:1015E0000895AC013091900360918F03232F621313
:1015F00001C00895822F90E0FC01EE0FFF1FEB5712
:10160000FC4F0190F081E02DE417F50791F467E0BD
:10161000649FF001659FF00D1124E059FC4F41E0FB
:1016200044832313E6CF0196837099278093900318
:1016300008950196282F2370DACFFA01309709F028
:1016400009950895E091B102F091B202309729F026
:101650000190F081E02D0995089580E00895A3E0C0
:10166000B0E0E5E3FBE00C9479359C018091F60154
:101670009091F70182179307A1F03093F70120931F
:10168000F601E091B102F091B202309751F083E09F
:1016900089833B832A830084F185E02DCE01019666
:1016A00009952396E2E00C949535A3E0B0E0EBE5D4
:1016B000FBE00C9479359C018091F4019091F50147
:1016C00082179307A1F03093F5012093F401E09184
:1016D000B102F091B202309751F084E089833B83EC
:1016E0002A830084F185E02DCE0101960995239689
:1016F000E2E00C949535909122019130C1F49091E3
:10170000220497FF14C0E82FE695E695E695803F02
:10171000F8F4F0E0E854FE4F877021E030E001C0BB
:10172000220F8A95EAF78281822B82830895A2EBA9
:10173000B1E0EFEF90E02D91821751F0EF3F19F4F7
:10174000211101C0E92F9F5F9630A9F7EF3F09F4FF
:1017500008950E2E000CFF0BE055FE4FE6CF909142
:1017600022019130E1F49091220497FF18C0E82FF4
:10177000E695E695E695803FF0F4F0E0E854FE4FFC
:10178000877021E030E0A90102C0440F551F8A95FF
:10179000E2F7CA0180959281892382830895E2EB62
:1017A000F1E09191891303C0DF0111971C9251E080
:1017B000E83BF507B1F708958091210108952FB70F
:1017C000F8948091F0019091F101A091F201B09113
:1017D000F3012FBF08958091000490910104892B9B
:1017E00091F00E94DF0B2091670330916803AC01F8
:1017F000421B530B9A0181E0409100045091010477
:101800002417350708F480E081700895CF93DF93A3
:10181000C0916A0380916C03C82B8091690388236F
:1018200029F18091000490910104892B29F00E94F4
:10183000EB0B81110E940C05D0916903809122016C
:101840008130C1F48091220487FF14C02AEB31E07B
:101850008DE190E0F90140812F5F3F4F41119F5F83
:101860008150C0F791110E940C05CD2B8C2FDF9178
:10187000CF91089522EB31E085E0EBCF90912304E6
:1018800092FF10C098E0899F90011124622B609311
:101890006D030E9430040E94DF0B90936F038093CE
:1018A0006E0308950E943004089590916903292FD2
:1018B0002823222361F0809589238093690388235C
:1018C00039F00E94DF0B80936703909368030895BB
:1018D00080E090E0F8CFCF93C82F8091230482FF5F
:1018E0000CC0809169038C1741F00E94DF0B90932C
:1018F000680380936703C0936903CF910895A4E0C0
:10190000B0E0E5E8FCE00C9479358FB7F8942091CD
:10191000F0013091F1014091F2015091F3012983DE
:101920003A834B835C838FBF69817A818B819C81F1
:101930002496E2E00C9495359C014FB7F894809181
:10194000F0019091F101A091F201B091F3014FBF2C
:10195000821B930B089587E797E790930108809384
:10196000000888E19AE00FB6F894A895809360008B
:101970000FBE90936000FFCF0895FC019B01809102
:10198000E6019091E7018617970740F0672B29F44D
:101990008091E8008E778093E800C90140E00097CD
:1019A00041F4411106C08091E80082FF2FC080E021
:1019B000089520918A022223A9F12530A9F12091CE
:1019C000E80023FD2DC02091E80022FDECCF2091FE
:1019D000E80020FFE4CF3091F3002091F20000975F
:1019E00019F02830310558F041E02830310509F070
:1019F00040E02091E8002E772093E800D0CF41917D
:101A00004093F10001972F5F3F4FE9CF80918A0209
:101A1000882341F0853041F08091E80083FFC3CFF7
:101A200081E0089582E0089583E008958091E001C7
:101A300087FF13C08091E80082FF06C08091E80014
:101A40008B778093E80004C080918A028111F2CFE5
:101A5000089580918A028823D9F38091E80080FF5D
:101A6000F8CF8091E8008E77ECCF2091E4003091A0
:101A7000E50095E6A9018091EC008170882331F0A2
:101A80008091E80080FF06C080E008952091E80082
:101A900022FD1BC080918A02882391F0853091F04D
:101AA0008091EB0085FD10C02091E4003091E500AD
:101AB0004217530701F391509111DCCF84E0089550
:101AC00082E0089583E0089581E00895E8EDF0E074
:101AD00080818E7F80831092E2001092DA00109253
:101AE000E100A0EEB0E08C9181608C9380818F77D3
:101AF000808319BCA7EDB0E08C918E7F8C938081A0
:101B00008F7E80831092DF010895982FE42FE2707A
:101B10009093E900891308C0762F242F50E0E1113B
:101B200011C091E0980FF4CF7091EC002091ED007E
:101B30005091F00021FD06C09F5F973049F78093D8
:101B4000E90008953091EB003E7F3093EB00309137
:101B5000ED003D7F3093ED003091EB00316030932C
:101B6000EB007093EC002093ED005093F000209177
:101B7000EE0027FDE1CF0895A0E0B0E0E2ECFDE04B
:101B80000C947335C8EDD0E088818F7E8883E7EDB3
:101B9000F0E080818160808384E082BF81E0809377
:101BA000DF0188818E7F888302EE10E0F8011082C9
:101BB0001092DA0081EEC82ED12CF60110828881B5
:101BC0008F77888388818068888388818F7D8883E8
:101BD00019BC10928A021092DE0110926F021092CC
:101BE000DD0190EEE92EF12CF70180818B7F80835F
:101BF00088818160888342E060E080E00E94850DFA
:101C0000F60180818E7F8083F801808181608083EE
:101C1000808188608083F70180818E7F80838881C6
:101C200080618883CDB7DEB7E8E00C948F359C01E6
:101C30002115310509F408958FE99FE00197F1F727
:101C400000C0000021503109F3CF3BB13D7F2BB1E3
:101C500022604FB7F89489E192E0FC01019650812F
:101C600068E02BB9000000C057FF3BB9550F0000DA
:101C700000C000C000C03BB900C06A9591F752E0B7
:101C80008832950751F74FBF8FE594E00197F1F740
:101C900000C0000008950F931F93CF93DF93EB01D3
:101CA0008A0190918A02943079F58093E9008FEF50
:101CB0009091E80095FD07C095ED9A95F1F7000029
:101CC00081508111F5CF8091E80085FF1DC00E94F1
:101CD000350D811114C08091E80085FD06C080910A
:101CE000E8008E778093E800F2CF88818093F1003E
:101CF000015011090115110511F02196ECCF8091C9
:101D0000E8008E778093E800DF91CF911F910F91CB
:101D10000895CF93DF93D82FC92F48E050E0682F64
:101D2000792F81E00E944B0E88E0ED2FFC2FA8EE6A
:101D3000B1E001900D928A95E1F7DF91CF9108957E
:101D4000BC0140E250E084E00E944B0E0895BC01CB
:101D500043E050E084E00E944B0E089590912304EC
:101D600092FB222720F9281779F080FB92F99093B3
:101D70002304609122047091230484E090E00E9487
:101D8000B73682E00E94E20408951F93CF93DF9359
:101D9000962F122F632F8330D8F49430C8F44B3031
:101DA000B8F4C42FD0E0CC0FDD1F26E1929FC00D08
:101DB000D11D112498E5899FC00DD11D1124CE019C
:101DC00088960E949936612FCE0189960E94993695
:101DD000DF91CF911F910895CF93DF93C6E8D1E0B3
:101DE00060E0CE010E9499362196C11584E0D807A3
:101DF000B9F7DF91CF910895882381F065E284E2FD
:101E000090E00E9499366EEA85E290E00E94993651
:101E100060EA86E290E00E94993608956FEF84E2CE
:101E200090E00E9499366FEF85E290E00E9499362B
:101E30006FEFEFCF0F931F93CF93DF930EEF13E06E
:101E4000C0E3D1E0CE010E947536F80161918F01A7
:101E5000861719F0CE010E9499362196C435F1E01B
:101E6000DF0781F7DF91CF911F910F9108950F93B5
:101E70001F93CF93DF930EEF13E0C0E3D1E0CE01C9
:101E80000E947536F80181938F012196C435F1E0E7
:101E9000DF07A9F7C6E0D6E0FE018591949100978F
:101EA00011F0FC0109952C96F6E0C639DF07A1F781
:101EB000DF91CF911F910F9108950F931F93CF93AF
:101EC000DF93833030F5643020F54B3010F5C42FAC
:101ED000D0E0CC0FDD1F26E1629FC00DD11D112483
:101EE00038E5839FC00DD11D1124CE0188960E9434
:101EF0007536082F10E0102F0027CE0189960E941A
:101F000075369801282BC901DF91CF911F910F9150
:101F1000089580E090E0F8CF462F672F20918D0242
:101F200030918E02232B91F4703F39F4403F71F4CD
:101F300080918B0290918C020895743038F44B306C
:101F400028F4833018F40E945D0F089580E090E03B
:101F50000895A0E0B0E0EFEAFFE00C9474357C0156
:101F60000091FD038091FC03082BC2E0D0E010E05B
:101F7000C8010C2E02C0959587950A94E2F780FD62
:101F800009C02197A8F7D12C8D2DCDB7DEB7E7E09A
:101F90000C949035DC2EB7018C2F0E948C0F0E9480
:101FA0000A06019771F3F0CFCF93DF93D82FC92F93
:101FB0000E94A90F6D2F7C2F0E948C0F0E940A0691
:101FC000DF91CF910895FC018481882371F087818E
:101FD0009085009729F00E940A060E940D0408953A
:101FE000808191810E94D40FF8CF80E008951F93E3
:101FF000CF93DF93182FD92F662399F0442389F0CC
:102000000E94A90FC82F682F812F9D2F0E944C047A
:10201000612F7D2F8C2F0E948C0FDF91CF911F910C
:1020200008950E948304C82FF3CFFC01462F8781B7
:102030009085009729F46581808191810E94F70F36
:10204000089584E290E00E947536853289F485E235
:1020500090E00E9475368E3A59F486E290E00E9434
:10206000753691E0803A09F090E0892F81700895EB
:1020700080E0FCCF80912201813059F580912204CB
:1020800087FF27C00E94060C8093B90140E250E010
:1020900061E972E088EB91E00E944836892BC1F03B
:1020A00080E2E8EBF1E0A1E9B2E001900D928A95BF
:1020B000E1F7E091B102F091B202309749F086E089
:1020C0008093B8010480F581E02D88EB91E00995BB
:1020D00008950E94060C8093B00148E050E063EB45
:1020E00072E080EB91E00E944836892B89F388E00A
:1020F000E0EBF1E0A3EBB2E001900D928A95E1F7FD
:10210000E091B102F091B202309711F30280F381B5
:10211000E02D80EB91E0DBCF882321F00E94FE04CC
:102120000E943A100895882339F090916C03892B0E
:1021300080936C030E943A100895882321F00E9436
:1021400004050E943A100895882341F080959091EB
:102150006C03892380936C030E943A100895CF93F7
:10216000C82F8823C9F08238C9F40E94220B81FD50
:1021700013C089E30E947B0B0E943A102FEF37EEC9
:1021800083E0215030408040E1F700C0000089E347
:102190000E94AF0B0E943A10CF9108958338A1F4AA
:1021A0000E94220B80FDF8CF83E50E947B0B0E94EA
:1021B0003A109FEF21EE34E0915020403040E1F79B
:1021C00000C0000083E5E4CF8438A1F40E94220B14
:1021D00082FDE2CF87E40E947B0B0E943A108FEFD2
:1021E00091EE24E0815090402040E1F700C00000D3
:1021F00087E4CECF8CEF8C0F813A90F5809122014D
:10220000813001F58091220487FF1CC0EC2FE695F8
:10221000E695E695F0E0E854FE4F828190E04C2F81
:10222000477021E030E002C0220F331F4A95E2F7E9
:1022300082239323892B81F08C2F0E94AF0B0E9465
:102240003A100AC0E2EBF1E088EB91E02191C2176D
:1022500099F38E179F07D1F78C2F0E947B0B9ACF93
:1022600080E28C0F883048F4C77081E001C0880F8D
:10227000CA95EAF70E94FE048DCF8BE58C0F833060
:1022800038F42C2F2452330BC9010E942F0B84CF1A
:10229000C85ACB3108F080CFEC2FF0E0EE0FFF1FD3
:1022A000E858FE4F808191810E94550B75CFCF93E6
:1022B000DF93EC01805E9109089720F063E970E1FB
:1022C000209711F46CE870E1CE010E94E1038C2F9D
:1022D0000E94AF10DF91CF910895662329F02091DD
:1022E0006C03226020936C039C0130522115304313
:1022F00008F499270E9457110895882309F44DC0C6
:10230000823879F40E94220B81FF47C089E30E9442
:102310007B0B0E943A1089E30E94AF0B0E943A1097
:102320000895833859F40E94220B80FF36C083E55C
:102330000E947B0B0E943A1083E5EECF843859F45B
:102340000E94220B82FF29C087E40E947B0B0E941F
:102350003A1087E4E1CF9CEF980F913AE8F290E2CF
:10236000980F983050F4877091E001C0990F8A95CA
:10237000EAF7892F0E940405D1CF9BE5980F93308F
:1023800028F480E090E00E942F0B0895885A8B314A
:1023900020F480E090E00E94550B0895CF93DF93E6
:1023A000EC010E947D11CE01805E9109089720F01A
:1023B00064EA70E1209711F46DE970E1CE010E94AA
:1023C000E103DF91CF9108951F93CF93DF93182FEF
:1023D000EB010E94AF10209739F4812F0E947D11EC
:1023E000DF91CF911F9108958FE99FE00197F1F759
:1023F00000C000002197EFCF60911E0470911F0470
:10240000893321F060911C0470911D040E94E41135
:10241000089510926A03809122018130C1F4809165
:10242000220487FF14C0EAEBF1E08EE1DF011D9288
:102430008A95E9F780E090E00E942F0B80E090E021
:102440000E94550B10926C030E943A100895E2EB23
:10245000F1E086E0EBCF0E9409122FEF84E39CE0CD
:10246000215080409040E1F700C0000088E19AE0F0
:102470000FB6F894A895809360000FBE909360000B
:10248000FFCFCF92DF92EF92FF92FB018FEF9FEF92
:102490004430510508F481C0C080D180E280F380CF
:1024A0000E940912D701C601B695A7959795879501
:1024B0008170282F220FD701C60181709927AA2782
:1024C000BB27822BB701A60132E076956795579519
:1024D00047953A95D1F74170440F440F842BB701CB
:1024E000A601E3E07695679557954795EA95D1F76C
:1024F0004170440F440F440F842BB701A601F4E050
:102500007695679557954795FA95D1F7417042951D
:10251000407F842BB701A601A5E076956795579576
:102520004795AA95D1F741704295440F407E842B80
:10253000B701A601B6E07695679557954795BA9588
:10254000D1F741704295440F440F407C842BB70172
:10255000A60197E076956795579547959A95D1F797
:10256000479544274795842B80932204D1FA8827E6
:1025700080F9880F9D2D9170892B909123049C7F69
:10258000892B80932304609122047091230484E0BA
:1025900090E00E94B73680E090E0FF90EF90DF90EF
:1025A000CF900895EEEFF3E0128E138E8FEA90E055
:1025B0009183808385E0848F28E833E1338322830D
:1025C00022E330E0378B268B28EC30E0318F208FF0
:1025D000158E178E168E20E530E031A320A382A33E
:1025E0000E941A0F0E9409121092230410922204D2
:1025F00080E084608093230460E074E084E090E0F5
:102600000E94B7360E94370F0895AAE2B0E0EBE0CF
:10261000F3E10C94783580EE91E0FC010196209175
:10262000F100208321E0883E9207B9F78091E10113
:10263000893009F45AC0C8F4823009F4B7C0833035
:1026400009F486C0813091F18091E80083FFEBC0EE
:102650008091E0019091E1019A3008F0E4C0E92F07
:10266000F0E0E65CF84C0C944D358A3009F48DC0EE
:102670008B3051F78091E001813231F78091E40194
:102680009091E501892B01F78091E800877F809385
:10269000E8000E94160D81E09091E201911101C0C5
:1026A00080E0809322010E940912CECF8091E00148
:1026B000813A51F68091E800877F8093E80080910D
:1026C000E4019091E501892B61F060E080E090E009
:1026D00070E00E94BD0C8091E8008B778093E80049
:1026E000B3CF68E088EE91E0F3CF8091E0018132D2
:1026F00009F0AACF8091E4019091E5018D7F892BAB
:1027000009F0A2CF8091E800877F8093E800809154
:10271000E80082FF18C09091F3008091F2000297C8
:1027200031F48091F100813011F0863021F48091F4
:10273000F100809321018091E8008B778093E8007D
:102740000E94160D81CF80918A028111E0CF7CCF4B
:102750008091E001813A09F077CF8091E401909176
:10276000E501892B09F070CF8091E800877F809385
:10277000E8008091E80080FFFCCF809122018093E7
:10278000F1008091E8008E77D9CF8091E00181320D
:1027900009F05ACF8091E800877F8093E8000E947B
:1027A000160D8091E301809320014ECF8091E001CE
:1027B000813A09F049CF8091E800877F8093E80053
:1027C0008091E80080FFFCCF80912001D8CF803835
:1027D00089F0823841F58091E4018F70873018F5D7
:1027E0008093E9008091EB0085FB882780F91092A7
:1027F000E90006C08091DD0190916F029111826025
:102800009091E800977F9093E8008093F1001092F8
:10281000F1008091E8008E7723C0811116C080916D
:10282000E201813011F18091E80083FF0AC08091BC
:10283000E800877F8093E8008091EB0080628093BE
:10284000EB00AA96E3E00C949435823061F7809116
:10285000E201882389F01092E9008091E800877FE7
:102860008093E8000E94160DDECF81E0933009F0DE
:1028700080E080936F02EFCF8091E4018F702FEFA3
:10288000280F263080F68093E9002091EB0020FF8E
:10289000E2CF933031F48091EB0080628093EB00C3
:1028A000DACF9091EB0090619093EB0021E030E063
:1028B000A90102C0440F551F8A95E2F74093EA0030
:1028C0001092EA008091EB008860E8CF8111ABCFD5
:1028D0001091E2011F778091E3008078812B809333
:1028E000E3008091E800877F8093E8000E94160D46
:1028F0008091E80080FFFCCF8091E30080688093A6
:10290000E30083E0111101C082E080938A028BCF43
:102910008058823008F087CF4091E2015091E30166
:102920004C3D83E0580799F583E08A838AE28983E6
:102930004FB7F894DE01139620E03EE051E2E32F1A
:10294000F0E050935700849120FF03C082958F7070
:102950003F5F8F708A30C8F0895C90E08D939D93C3
:102960002F5F243161F74FBF8091E800877F80930C
:10297000E8006AE270E0CE0101960E94BD0C8091F1
:10298000E8008B778093E8004ECF805DE6CF8091A2
:10299000E4019091E501252F33272330310509F417
:1029A0004AC078F52130310509F483C08BE590E009
:1029B000EFE2F2E02230310509F035CF2091E80056
:1029C000277F2093E8002091E6013091E7018217EC
:1029D000930708F49C0140E02115310509F06EC011
:1029E00041116CC08091E80082FDC9CF80918A02BC
:1029F000882329F2853019F28091E80083FFF2CF15
:102A0000BECF2132310509F445C02232310509F02B
:102A10000ACF8330910508F006CFFC01EE0FFF1FAF
:102A2000EE5CFE4F0190F081E02D815D9E4FDC0158
:102A30008C9190E010C0CA019927423019F183307F
:102A4000910568F4892BB1F4E6EDF2E0E4918E2F64
:102A500090E0E6EDF2E0009709F4E5CEAFCF039702
:102A600009F0E1CEECE9F2E0E4918E2F90E0ECE9A0
:102A7000F2E0F1CFEAECF2E0E4918E2F90E0EAECA4
:102A8000F2E0E9CFEAEBF2E0E4918E2F90E0EAEB9E
:102A9000F2E0E1CF8330910508F0C5CEFC01EE0FE6
:102AA000FF1FE85CFE4F0190F081E02D89E090E08F
:102AB00085CF82E190E0EAE8F2E080CF80918A025F
:102AC000882309F45CCF853009F459CF8091E80060
:102AD00083FD55CF8091E80082FD84CF8091E8008E
:102AE00080FF7ACF9091F3008091F200211531059B
:102AF00019F08830910550F041E0089709F040E066
:102B00008091E8008E778093E80066CF44914093EF
:102B1000F1003196215031090196E8CF803809F053
:102B200082CE8091E800877F8093E8008091DE016B
:102B30008093F1006ECE811176CE1091E2011230B9
:102B400008F071CE8091E800877F8093E8001093B1
:102B5000DE010E94160D1123F9F084E080938A02B1
:102B600042E061EC81E00E94850D42E261EC84E08C
:102B70000E94850D42E261EC82E00E94850D42E2F6
:102B800060EC83E00E94850D80918A02843051F4CC
:102B900082E08093230147CE8091E30087FDDDCF63
:102BA00081E0DCCF81E0F5CF80912401877F8093A5
:102BB000240190916C039D7F90936C0384FF06C069
:102BC0008F7E8093240182E00E94FE048091240184
:102BD00085FF06C08F7D8093240180E20E94FE0461
:102BE0000E943A100895CF92DF92FF920F931F93A5
:102BF000CF93DF93EC018B01F42E8091240182FFAF
:102C000066C0C0905003D0905103CC16DD0619F079
:102C1000209709F05CC0809124018B7F8093240170
:102C2000C1E081FD10C080914E0390914F03980147
:102C3000281B390BC1E080911C0190911D012817C0
:102C4000390708F4C0E0C17080912401C0FB81F90C
:102C5000809324016C2FC6010E94BA0A80916A03F6
:102C600081FF08C08091240180618093240182E06B
:102C70000E94040580916A0385FF08C080912401A9
:102C800080628093240180E20E9404056C2FC601BB
:102C90000E946D11FF2031F08091190485FF02C060
:102CA00086FF29C080911C0490911D040E94170E7C
:102CB00080915003909151039C0130522115304373
:102CC00008F499270E94CE110E94D41510C0CE019D
:102CD000905281159043B8F4CE0199270E94CE11ED
:102CE0008091500390915103C817D90769F310934D
:102CF0004F0300934E03DF91CF911F910F91FF90EF
:102D0000DF90CF900895CE01E9CFCF93DF93EC0110
:102D10004A855B856E857F850E941D0B9B81909502
:102D200080916C03892380936C038C810E9404053D
:102D30000E943A1086E0FE0111928A95E9F7DF9130
:102D4000CF910895CF93DF93EC018D8181FD14C065
:102D500082608D8380916C039B81892B80936C03AF
:102D60008C810E94FE040E943A10488559856E8528
:102D70007F85CE010E941D0B10924B0310924A03D7
:102D80008D8180FD03C0CE010E948516DF91CF9119
:102D90000895A0E0B0E0EFECF6E10C947235EC01A0
:102DA0000881002309F4A8C0013009F044C08981DA
:102DB000813049F48E010E5F1F4F8A810E94FC1101
:102DC000E8012196EDCF823039F48E010E5F1F4F5E
:102DD0008A810E94AF10F4CF833039F48E010E5FE8
:102DE0001F4F8A810E947D11EBCF843011F0219614
:102DF000E8CF2A81229680E090E06AE0AE014F5F42
:102E00005F4F2053330B2A30310550F00097C9F241
:102E1000EFE9FFE03197F1F700C000000197F6CF2E
:102E2000689FF001699FF00D1124C9018E0F9F1F4B
:102E30002981EA01E3CFE02FF0E0E155FE4FB490A5
:102E4000202F26952695269530E0F901E156FE4F74
:102E5000E4900770F12C002E02C0F594E7940A94D8
:102E6000E2F7F1E0EF22FF24F901E157FE4FC490B1
:102E7000D12C002E02C0D594C7940A94E2F781E0C9
:102E8000C822DD24F901E158FE4F1491E114F10448
:102E9000A9F4C114D10409F560E070E08B2D0E9403
:102EA000E411E12FF0E002C0F595E7950A95E2F70D
:102EB000E0FF87CF8CE20E94FC1183CF81EE0E945D
:102EC000AF10C114D10449F460E070E08B2D0E9472
:102ED000E41181EE0E947D11E4CF86EE0E94AF10D6
:102EE00060E070E08B2D0E94E41186EE0E947D115F
:102EF000E114F104B1F2EDCFCDB7DEB7E9E00C9407
:102F00008E35A4E1B0E0E7E8F7E10C946E35A090CF
:102F10001E01B0901F0181E090E090931F0180930B
:102F20001E01812C912CE12C6401F12C15C0F801BB
:102F300025913491472D6F2D8E2D0E94C50E0E5F69
:102F40001F4F73948BE07812F2CFEBE0CE0ED11CC2
:102F5000F394F4E0FF1639F08601000F111F0652BA
:102F60001D4F712CE4CFE3948CE2880E911CE3E0BA
:102F7000EE12DACF0E94D2121A8219821C821B82B0
:102F80001E821D8218861F8288EC90E09A878987AE
:102F90004AE050E064E571E0CE0101960E94BD3642
:102FA0004AE050E06EE571E0CE0101960E94BD3628
:102FB0008E01055F1F4F8AE0F80111928A95E9F7AB
:102FC0004AE050E068E671E0C8010E94BD364AE080
:102FD00050E062E771E0C8010E94BD364AE050E06F
:102FE0006CE771E0C8010E94BD36B0921F01A0924B
:102FF0001E016496EDE00C948A3580E00E94FC0E80
:1030000060E087E290E00E9499360E9481170E945A
:10301000EC0E81E00E94FC0E0895AAE0B0E0E3E12E
:10302000F8E10C947335E8E2F2E08EE1DF011D92E5
:103030008A95E9F7E0E7F3E085E1DF011D928A95E3
:10304000E9F788E2C82E82E0D82E7F0108E611E079
:10305000F701D182C0824AE050E0B801CE0101966A
:103060000E94653688E0FE013196D60101900D92EE
:103070008A95E1F789859A85D70113969C938E935B
:103080001297BAE0CB0ED11CE7E0EE0EF11C065F02
:103090001F4F0638F1E01F07D9F62A96E8E00C9496
:1030A0008F35282FCB01223070F44AE0249F900105
:1030B0001124B9016C5A7E4F4AE050E00E946536F7
:1030C00080E090E008958FEF9FEF0895AAE0B0E0D0
:1030D000ECE6F8E10C9479359C0197558F3F91050A
:1030E00009F070F4BE016F5F7F4F822F0E9451186C
:1030F000892B31F489859A852A96E2E00C949535DE
:103100008091160490911704F7CFA0E0B0E0EBE8AF
:10311000F8E10C947435D62E172FC42FD22F8823A4
:10312000A9F040935B030E94DF0B9093DC01809336
:10313000DB01C77081E001C0880FCA95EAF70E94E1
:103140008C10CDB7DEB7E7E00C94903580915B032F
:10315000481337C08091DB019091DC010E949C0CE8
:103160007C018D2D912F0E946618E816F90648F50E
:10317000CD130CC0802F0E94FC11D77081E001C0DC
:10318000880FDA95EAF70E949D10DBCFC77011E037
:10319000812F01C0880FCA95EAF70E949D1080E236
:1031A0008D0F883050F48D2F877001C0110F8A95D4
:1031B000EAF7812F0E948C10DDCF802F0E94FC1136
:1031C000C0CFC77081E001C0880FCA95EAF7DBCF96
:1031D000A0E0B0E0EEEEF8E10C946D35FC018280E9
:1031E000648081E08483E2EEF3E09490E1E6F4E031
:1031F000E491009162030695015810E0000F111F41
:10320000012F1127C8E4D2E0C12CD12CAA24AA9402
:10321000B12C77247A94E919EE2EF12C82E08815EE
:1032200030F080916003888380916103898361100D
:1032300017C01B821A8296014A81698188810E9487
:10324000CA078FEFC81AD80A259685E0C816D10498
:1032500029F70E94E807CDB7DEB7EEE00C94893578
:103260008B818823E9F081508B83789EC0011124E3
:103270006C8170E00E942535FB01FF27EE51FC4F69
:103280008491E82FE9197E9EC0011124B7010E94A4
:10329000253580916203689FB00111247A83CBCFDA
:1032A0000E942236B5010E943935801791070CF033
:1032B000C2CF82E0881588F40E942236B5010E94B0
:1032C000393588830E942236209161032695622F2A
:1032D00070E00E943935280F29831A828091620399
:1032E000893C20F088EC8C838B83A5CF8431D8F780
:1032F00084E1F9CFA0E0B0E0E0E8F9E10C947335A7
:103300008901D42FC52F6B017C010E94DA07A80127
:103310006D2F7C2F88E090E00E94AB3698014D2FF6
:103320005C2FB601C70100E20E94BB35622F83E229
:1033300090E00E949936CDB7DEB7E8E00C948F3567
:1033400080916303833018F48F5F8093630320912F
:103350005F0330916003409161035091620360917B
:1033600063037091640380916503909166030E94EA
:103370007A19089580916303882319F0815080930E
:10338000630320915F03309160034091610350918A
:10339000620360916303709164038091650390916F
:1033A00066030E947A190895A0E0B0E0EAEDF9E121
:1033B0000C946E35182FF62E042FE22E90915F0399
:1033C00090FF2FC0E92FE695E695AE2FB0E0A25C06
:1033D000BE4F8C9180935D039C7F943039F5612FB3
:1033E0007F2D842F0E943F07962F672F482F892F0C
:1033F0000E94FF0710936003F09261030093620341
:10340000EE2079F020915F03609163037091640373
:10341000312F4F2D502F80916503909166030E94AC
:103420007A19CDB7DEB7EDE00C948A35823019F405
:1034300000916203DFCF863019F410916003DACF78
:103440008930D9F38931B1F6E9518E2F8170782E08
:10345000E695F0E0EE51FB4FE491CE2FD0E0A12CA9
:10346000B12CC12CD12C85E0882E912CC501B40142
:103470000E942535812F711012C0860F9601402FB2
:103480006F2D0E94CA078FEFC81AD80AAC0EBD1E56
:1034900085E0C816D10451F70E94E807ABCF861B20
:1034A000EDCFEFE5F3E0818121E043816281865F2A
:1034B0000E94D4190895EFE5F3E0818121E0438172
:1034C00062818A500E94D4190895EFE5F3E0628189
:1034D00021E1620F08F46FEF21E0438181810E94B6
:1034E000D4190895EFE5F3E0628121E1621B08F44D
:1034F00060E021E0438181810E94D4190895EFE5C5
:10350000F3E0438121E1420F08F44FEF21E06281B3
:1035100081810E94D4190895EFE5F3E0438121E110
:10352000421B08F440E021E0628181810E94D419AD
:10353000089560915F036695669570E04BE050E0FA
:1035400087E091E00E943B36892B19F481E080935B
:103550005E030E94DF0B90937A02809379020895B4
:1035600090915F0390FF3BC08823D1F18B32D0F55F
:103570008F73282F220F220F80915F038370282BD7
:1035800020935F03662381F03091600340916103D3
:1035900050916203609163037091640380916503AD
:1035A000909166030E947A1960915F036695669513
:1035B00070E04BE050E087E091E00E943B36892BC1
:1035C00099F010925E0381E080937C0220E04091AC
:1035D000620360916103809160030E94D419089591
:1035E00081E0C7CF8AE2C5CF0E94991AECCF8091C3
:1035F0005F03869586958F5F8B3208F081E061E0EE
:103600000E94B01A089590915F03969596958FEF5A
:10361000890F913009F48AE261E00E94B01A08959E
:10362000A4E0B0E0E6E1FBE10C946D357C01DC0147
:1036300014968C91882309F4BFC361E0C7010E94EE
:1036400015108C01F7018581882331F180914A039F
:1036500090914B03009701F108171907E9F0FC015D
:10366000FF278E7F9927892B09F069C054E0EE0F60
:10367000FF1F5A95E1F7E65DFC4F858184608583E5
:1036800011830083CF010E94A21610926C0361E0A7
:10369000C7010E9415108C01D70115968C918823C3
:1036A00009F4BFC0C80197578038910508F0C3C11D
:1036B000D02EBFE0B01708F46EC38FEF93E00E94E6
:1036C0007536811168C306E811E0D1103BC044E0B3
:1036D000C42E9E012F5F3F4F4901D401EC2D1D9256
:1036E000EA95E9F75801FFEFAF1ABF0AC8010E9437
:1036F00075368983882309F44EC3813009F08DC063
:10370000380122E0620E711CC5010E947536D82E68
:103710008A83882309F43FC38FEF8D0D833000F532
:10372000C3010E9475368B83882319F0C4010E945F
:10373000C916580133E0A30EB11C8501CECFE0E0DD
:10374000F0E09BCF0115E4E01E0709F424C3C80193
:103750000E9475360F5F1F4F8111F4CFDA94B5CFF9
:103760008BEF8D0D833058F5580143E0A40EB11C4A
:10377000C3010E9475368B838823F9F2C5010E942C
:1037800075368C83882381F08B819C8181305FEF3B
:10379000950710F0982F8827A6E0DA1651F0B7E0C9
:1037A000DB1651F00E941C2A5801E4E0AE0EB11C59
:1037B000C4CF0E94D829F8CF0E94FA29F5CFF4E0AF
:1037C0005301DF12BACFC3010E947536D82E5801BB
:1037D00024E0A20EB11CC80103960E947536282F62
:1037E000DD2009F4D8C2882309F4D5C22150330B57
:1037F0004FEF429FC001439F900D11244D2D41502A
:10380000550B840F951F019708F497CFAFE9BFE0E0
:103810001197F1F700C00000F6CFC4010E94C9164D
:103820008CCF0115E7E51E0708F078C080911904D8
:1038300080FF9AC10E94DF0B5C01D70115968C9125
:10384000159781112DC1013E110509F0EEC180913E
:1038500024018F7E80932401F70185818111D7C1D6
:10386000F70187819085009709F4ADC40E940A068C
:10387000D82E192FF701B580C680C2948FE0C822D8
:1038800080916D038770882309F1AB2CBB20F9F080
:10389000892F807F803469F080E28D0D8830B0F010
:1038A000892F807E803229F4F1E0FD1578F4CC2058
:1038B00069F08091230482FF09C082E00E94E20443
:1038C00080916D038770AA24A3948111A12C812F6C
:1038D00082958F70883009F4D9C508F09CC4843073
:1038E00008F088C4012F0F70823008F4A6C4812F1D
:1038F000807F803211F00295007FDD2009F4D3C46F
:1039000031E0D31609F475C5BB2009F489C5CC2074
:1039100009F481C58D2D0E94AF100BC50115B8E5C6
:103920001B0708F08FC06801E7E5DE1A60E273E06C
:103930008C2D0E945118892B31F5C60124E0880F87
:10394000991F2A95E1F7FC01E65DFC4F22812130A9
:1039500009F05CC02091200330912103232B99F0C2
:103960002091220330912303232B69F0209124031B
:10397000309125034091260350912703242B352BAA
:10398000232B09F44DC05801E894A0F8BB24A114DE
:10399000B10409F000C2F801FF2794E0EE0FFF1F09
:1039A0009A95E1F79F01265D3C4F6901D701159675
:1039B0008C91E15DFC4F908180FB90F9908388238E
:1039C00009F452C00E94DF0B90934D0380934C0387
:1039D000F60182818F5F828380916C0390916A03EC
:1039E000892B83838091690384834681578166850F
:1039F0007785C6010E941D0BD60115968C9181FF1B
:103A00005801B0924B03A0924A031CC0223009F027
:103A1000BACF2091240330912503232B09F4B3CF8F
:103A2000FC01E15DFC4F20812E7F2083865D9C4F51
:103A30000E94A216A8CFC80197558F3F910509F0A3
:103A400008F4A1CF8091190480FDF4CED70115961A
:103A50008C91F801E851FC47E730F10508F007C107
:103A6000EC5BF84C0C944D35F90144855585668521
:103A70007785C9010E941D0BD60115968C9181FF97
:103A8000E1CFC6010E94851680914A0390914B03B5
:103A900008171907B9F610924B0310924A03D2CFB8
:103AA0008091240182FF06C040E0B50180E090E0F3
:103AB0000E94F3150431BCE71B0709F446C0053129
:103AC000ECE71E0771F1D70115968C910331BCE725
:103AD0001B0709F071C0909124019160909324011B
:103AE000882309F441C010925103109250031092A0
:103AF0005B03C8019057839708F072C284E090E09E
:103B00000E9483369093230480932204F801E150AD
:103B1000F047E232F10508F0A6C1E55BF84C0C94E1
:103B20004D3590912401892F8E7F90FF8160809385
:103B300024010E94D4158091240180FF90C1F701D7
:103B40008581882309F493C054C0809124018E7F1D
:103B5000809324010E94D4158091240180FDEFCF31
:103B6000F70185818111C3CFF70185810737FCE714
:103B70001F0709F4D2C208372CE7120709F4DCC288
:103B80009801205E32452032310508F0DBC28111F8
:103B900067CE0F7181E090E0AC0102C0440F551F69
:103BA0000A95E2F78A01642F83E090E00E9499363B
:103BB000802F0E942A04EFC0980130522115304313
:103BC000E8F0D70115968C919091240190FF3ECF9B
:103BD00008321105E0F50E31110508F08BC098018F
:103BE000245031092A31310508F45CC0882309F4D6
:103BF000BBCF109251031092500339C01092510361
:103C000010925003882309F42BCE10925B0380910D
:103C10006A038272F801E052F847EB30F10508F0D0
:103C2000A3CFE359F84C0C944D35053E110541F4F2
:103C3000809124018F7D8093240115968C910ECE66
:103C4000C80190528115904308F0BBCF09CE0933CB
:103C50001105E8F40D32110520F40B32110509F0BD
:103C60003FCF9091190492FF21C0811116C0F70136
:103C70008581811110925B03D70115969C9191115A
:103C800038CF0631FCE71F0709F06ECFAFC104360D
:103C9000110539F3882309F4D9CE109251031092FB
:103CA0005003D4CE9091190494FDA0CF882309F439
:103CB000A4C08091690390916A03892B8D7F88232A
:103CC000F1F010925103109250038091190481FD7C
:103CD00016C060E0C8010E94BA0A60E0C8010E94F4
:103CE0006D11809169038D7F0E946B0C82E00E94B0
:103CF000E20451C09091190493FD78CFD7CF89E0A9
:103D0000F701A2E5B3E001900D928A95E1F71092D8
:103D1000550310925403809150039091510308175A
:103D2000190709F04DC02091190425FF49C03091B1
:103D3000240131FF02C026FF43C020914E03309181
:103D40004F036501C21AD30A0E946618C816D90625
:103D5000B8F580916A0381FF08C0809124018061D9
:103D60008093240182E00E94040580916A0385FF0C
:103D700008C08091240180628093240180E20E9427
:103D800004056091240166956170809150039091C3
:103D900051030E946D1180916D038770882361F03B
:103DA000D70115968C91882339F08091230482FFE6
:103DB00003C082E00E94E2042496EEE00C94893570
:103DC00080916903D0906A03D82AD1FADD24D0F813
:103DD0008D7F0E946B0C1093510300935003B0929F
:103DE0004F03A0924E03DD0C6894D2F89091240109
:103DF000997FD92AD092240179CF40E0B501C8013A
:103E00000E94F315C8CF06E221EE41EE6AE17CE79D
:103E10000E948518C0CF07E225EE45EE6BE17CE7F6
:103E2000F7CF06E221EE40EE68E17CE7F1CF07E252
:103E300025EE44EE69E17CE7EBCF06E221EE42EEAF
:103E40006CE17CE7E5CF07E225EE46EE6DE17CE72D
:103E5000DFCF08E221E045EE6EE17CE7D9CFD70164
:103E600015968C917FCE80912204816080932204EC
:103E7000609122047091230484E090E00E94B736A0
:103E80000E94091288CF80912304886080932304C4
:103E9000EFCF809122048260E9CF80912204846078
:103EA000E5CF809122048860E1CF80912304816076
:103EB000EDCF809123048260E9CF8091220480615C
:103EC000D5CF809122048062D1CF8091220480647A
:103ED000CDCF0E940912809122048068C7CF8091C3
:103EE00022048C60C3CF809123048360CFCF809164
:103EF00022048E7FBBCF80912304877FC7CF809120
:103F000022048D7FB3CF809122048B7FAFCF80912D
:103F10002204877FABCF809123048E7FB7CF80911F
:103F200023048D7FB3CF809122048F7E9FCF809119
:103F300022048F7D9BCF809122048F7B97CF0E949C
:103F40000912809122048F7791CF80912204837F80
:103F50008DCF809123048C7F99CF8091220482FBA6
:103F6000992790F921E0922790FB82F990FB83F941
:103F70007DCF80912304982F909591708E7F892B0F
:103F800090FB81F983CF90912204892F8F7B96FF3C
:103F900080646CCF0E94091290912204892F97FBB4
:103FA00087F9805863CF61E08EE090E00E949936F7
:103FB0005FCF60E0F9CF90912204892F8F7E94FF2C
:103FC000806154CF90912204892F8E7F90FF816071
:103FD0004DCF90912304892F877F93FF886056CF20
:103FE0000631BCE71B0709F012CE91E080916A030D
:103FF0003091180430FF04C0282F247421111CC0F4
:10400000282F2A7A31FF04C0482F4171411120E046
:10401000432F487032FF12C0382F3878332371F0A5
:1040200041111FC0911114C080915C038823D9F005
:1040300085E30E94AF0B12C020E0E4CF442319F0C7
:1040400082728111EFCF992379F385E3211102C0A8
:1040500090E089E290935C030E947B0B0E943A10EF
:104060009ACE20E0EDCF89E2E4CF80915F0380FF1C
:1040700019C0282F2E7F20935F0330916003409159
:1040800061035091620360916303709164038091B6
:104090006503909166030E947A1910925E030E9454
:1040A000E80779CE816080935F0361E0869586950D
:1040B0000E94B01A70CE882329F00E94031B6BCE99
:1040C0008823D9F30E94F71A66CE882329F00E942C
:1040D0005B1A61CE8823D9F30E94511A5CCE8823E3
:1040E00029F00E94721A57CE8823D9F30E94651ACC
:1040F00052CE882329F00E948C1A4DCE8823D9F302
:104100000E947F1A48CE882329F00E94BA1943CE14
:104110008823D9F30E94A0193ECE882349F081E07C
:104120000E94300443E062E081E00E94B70433CE95
:1041300081E00E943C04F6CF882311F082E0F0CFAA
:1041400082E0F7CF882309F48BCB0A355CE71507AB
:10415000B1F1D0F401309CE7190779F10330ACE7F5
:104160001A0729F10115BCE71B0709F079CB0E945A
:1041700009122FEF34E34CE0215030404040E1F78A
:1041800000C000000E94AB0C0B35ECE71E07C9F025
:104190000C35FCE71F0709F063CB8091230482FBF9
:1041A000882780F991E089270E94AE0E59CB6FEFE6
:1041B0007FEF80E090E00E94B7360E942B1281E0F2
:1041C000F3CF80E0F1CF8581C080D180882369F072
:1041D000C6010E94A90F182F682FC6010E944C0427
:1041E000B601812F0E948C0F41CBC6010E9483042F
:1041F000182FF6CF843009F42CC18D2D912F0E94F9
:104200000D04882309F495C0BB2009F49FC2CC207B
:1042100009F46DC08EC0893009F4A9C18A5F8F701E
:10422000823058F70B2D22EFD212B3C1812F8F713C
:10423000B110ACC10E94300457C1103110F002958A
:10424000007FBB20B9F0002359F080E28D0D88304B
:1042500010F0D11009C0802F0E94FE040E943A1075
:104260008D2D0E94AF10C9CF80916C03802B80935D
:104270006C03F4CF8D2D0E947D11002309F4BDCF76
:1042800080E28D0D883010F0D11004C0802F0E9484
:10429000040506C0009580916C03802380936C0315
:1042A0000E943A10AACF8091230482FD12C0BB2045
:1042B00049F0002329F0802F0E94FE040E943A104A
:1042C00080E0CFCF80E00E947D11002309F495CFDC
:1042D000DDCFBB2009F452C0C11022C0802F0E9444
:1042E0008C1080E0912F0E940D04882311F1AA20E8
:1042F00009F427C280916D0380FD23C2F701158266
:104300008695869586950E943004C7010E94101BF1
:1043100080916D038695869586950E943C0411C216
:1043200041E0C41215C0D0906903802F8D2108137D
:1043300005C01092250410922404D9CF0E94DF0BEF
:104340009093680380936703D02AD0926903F1CFDA
:1043500080911A04823068F3C812EBCF802F0E943C
:104360008C10802F0E94550C80916B03902F982306
:104370000917F9F2802B80936B03DBCFC11019C0B2
:10438000802F0E949D10802F0E94550C80916B03FE
:10439000902F9823911108C080E0912F0E940D0466
:1043A000882339F20A2D81C10095082300936B03FD
:1043B000F3CF80911A04823008F4BBCF51E0C512CC
:1043C000B8CF80916A038023882309F4B2CF802F6D
:1043D0000E949D10802F0E94550C80916B03902F9E
:1043E0009823992309F4A5CF0095082300936B0324
:1043F000A0CF80912004BB2039F08C1508F499CF10
:10440000802F0E948C10F9CEC81608F0F6CE802FAF
:104410000E949D10F2CE802F0E948C108D2D62CFB5
:10442000CC2091F089E3D8120AC080911E049091AB
:104430001F040E94170E8D2D0E947D117ACF80914E
:104440001C0490911D04F5CF802F0E949D108D2D8E
:10445000A4CF812F869586958370882369F081305B
:1044600009F0CBCE8D2D912F9370B11002C080E05A
:1044700090E00E94550BC1CE8D2D912F9370B110FD
:1044800002C080E090E00E942F0BB7CE812F837096
:10449000811135C0B11028C04D2D42954695477009
:1044A000440F440F8D2D8F70042E01C0880F0A9485
:1044B000EAF72D2D2071222339F02FE030E001C0E2
:1044C000220F4A95EAF72095312F369536953370AD
:1044D000323081F0333061F04091FC03313039F0FB
:1044E000822B84230E942A040E94220B86CE842BD6
:1044F000822BF8CF822B9091FC038927F3CFBB202E
:1045000059F110FFF1CF4D2D429546954770440F5C
:10451000440F8D2D8F70042E01C0880F0A94EAF786
:104520002D2D2071222339F02FE030E001C0220F21
:104530004A95EAF72095312F36953695337032300B
:1045400089F0333069F04091FD03313041F0822B26
:1045500084230E942D04C8CF823030F2D4CF842B24
:10456000822BF7CF822B9091FD038927F2CF012F69
:104570000F70BB2039F0802F0E9430048D2D0E94D7
:104580008C10B2CF8D2D0E949D10802F0E943C0474
:10459000ABCF92EF9D1580F0A0EFDA16D1F0B1EF1E
:1045A000DB16D9F1BB2009F4B6C0CC2009F4B0C0A9
:1045B0008D2D0E94AF1098CFE3EFDE16F1F0F4EFEF
:1045C000DF1639F1B110F1CFC110AFC0812F8F715B
:1045D000DDCF80912004BB2061F0C81608F084CFA5
:1045E000212F2F7181E090E001C0880F2A95EAF712
:1045F000BACF8C1508F478CFF3CF80E0BB2009F454
:10460000A8CF81E0912F9F7101C0880F9A95EAF79A
:10461000A0CF8091230482FD06C0812F8F71BB2023
:1046200009F4B4CF07CE80911A04823008F45DC03B
:10463000BB2021F190916D0397709430B9F41092E2
:104640006D0310926F0310926E03812F8F710E9481
:104650003C040E94220B84EF912F0E940D048111D3
:104660006EC010922504109224046BC0C81688F7FF
:1046700063E0812F8F710E943E0CEBCFC81688F14A
:1046800010926D0310926F0310926E0364E0812FFD
:104690008F710E943E0C0E94220B84EF912F0E948A
:1046A0000D048823F1F2C110DCCF40E0D70115964C
:1046B0006C9115978D919C910E94F70F80911B042E
:1046C00083FF09C08091240490912504029719F476
:1046D0008D2D0E94FC111092250410922404A02E0E
:1046E00006CE81E00E94E204D6CFBB2031F063E029
:1046F000812F8F710E943E0CF7CE81E00E94E20470
:1047000021E02C1508F0F0CE82E00E94E204ECCE0D
:10471000812F8F718FCDCC2009F458CF39E3809150
:104720001E0490911F04D31621F080911C049091D7
:104730001D040E94170E8D2D0E947D11D5CEC11033
:1047400090CF60E0C7010E94151036CBC110F1CDAB
:1047500029CEA0E0B0E0EFEAF3E20C94743580914A
:104760000B03803108F049C080910A03882309F4C3
:1047700044C0C091BC0289E0D82E8091BB028C1746
:10478000E1F1EC2EF12CDC9EE0011124FE01E3545A
:10479000FD4F84818823B1F19181809106039813A4
:1047A00031C090818091050398132CC085818111BF
:1047B00029C0028113818091070390910803081B8F
:1047C000190B60E085E093E00E9415100E946618C6
:1047D00008171907B8F480910B038F7080618093DC
:1047E0000B03CD53DD4F88818F708061888385E016
:1047F00093E00E94101B0E94D804CDB7DEB7E7E01B
:104800000C949035E7012196C770B7CFAFE0B0E0C8
:10481000ECE0F4E20C946C358C0186E0F801DE01EA
:104820001A9601900D928A95E1F7D801CC901196D5
:104830007C90119715966C9015971296ED90FC90C0
:10484000139714965C9085E0A82E83E0B82E809193
:104850000903811118C0552099F0662009F4CBC1D5
:10486000C8010E94E30F882309F4C5C189E0F8015B
:10487000A5E0B3E001900D928A95E1F70E94A9238B
:10488000FF24F3944BC060E085E093E00E94151094
:10489000D0900A038091070390910803DD2009F46A
:1048A00049C14701881A990A60E085E093E00E94B7
:1048B00015100E9466188816990608F0F6C0552053
:1048C000F9F2B0900B0390910603F8018181FFE0AB
:1048D000FB1508F4A1C0F62C981325C09091050390
:1048E000D8018C9198131FC020910C0330910D03B7
:1048F00017968D919C9128173907A9F4611077C0FC
:104900008B2D8F70806180930B0385E093E00E9474
:10491000101B80910B03F8018683F12C8F2D2F96AD
:10492000EFE00C948835611062C0E091BC02809188
:10493000BB02AE2F99E0A81302C099E02AC02A2F2B
:1049400030E09A9FD0011124A354BD4F11964C9191
:104950001197741207C04C91C41204C015964C9163
:10496000411153C1D9011196A770E5CF2E2F30E028
:104970009E9FF0011124E354FD4F4181741206C043
:104980004081C41203C045814111C7CFF90131965E
:10499000E7708E13EBCF8A859B850E94D40F292F59
:1049A00022952F70903448F02A5F2F702230C8F083
:1049B000C8010E94101BFD2CB1CF9F70223038F02F
:1049C000992351F0F8019681903130F4A7CF9923C3
:1049D00019F0882309F4A2CF805E883008F49ECFB6
:1049E000E7CF803F08F49ACF815F8230F7CF809184
:1049F0000B03816080930B0380911B0481FD8DCF9D
:104A000085E093E00E94101B89E0E5E0F3E0DF0120
:104A10001D928A95E9F781CF981321C090910503E3
:104A2000D8018C9198131BC020910C0330910D0379
:104A300017968D919C9118972817390781F461106A
:104A40000EC01696BC92C8010E94101B89E0F801A6
:104A5000A5E0B3E001900D928A95E1F711CFC8016E
:104A60000E94E30F882309F4C6C0662009F4C3C07E
:104A700080910B03803208F4F9CE80910503909168
:104A800006039A838983FC82EB82809109038D83DC
:104A90001E82BF8280910C0390910D0399878887B5
:104AA000CE0101960E94101BE1CED0900B03BFE017
:104AB000BD1508F0A5CF552009F4E2CE909106036C
:104AC000F801818198131AC0909105038081981391
:104AD00015C020910C0330910D0387819085281714
:104AE000390761F461100AC0D682C8010E94101B08
:104AF00089E0D5011D928A95E9F7C2CEC8010E94CE
:104B0000E30F882309F477C0662009F474C080910C
:104B10000B03803208F4AACE80910503909106031E
:104B20009A838983FC82EB82809109038D831E82A4
:104B3000DF82B0CF6701C81AD90A60E085E093E050
:104B40000E9415100E946618C816D90608F057C0B2
:104B5000552009F495CE662009F44DC090910603C6
:104B6000F801818198133DC09091050380819813CD
:104B700038C020910C0330910D0387819085281750
:104B8000390779F5C0900703D090080360E085E00D
:104B900093E00E94151080911B0482FD57CFEC1802
:104BA000FD088091160490911704E816F90608F0A4
:104BB0004DCF80910B0380FD49CF803108F446CF63
:104BC000D80116968C931697982F907F903F09F4F2
:104BD0003ACF982F907F905F8F70892B16968C9389
:104BE00032CFC8010E94E30F811140CE80910B03A8
:104BF000816080930B03C8010E94101B41CE89E0A5
:104C0000F50111928A95E9F788CE90911B0490FFE7
:104C100094CEF6CEA2E1B0E0E0E1F6E20C94773576
:104C20000A871B872C873D874E875F87688B798B28
:104C30008A8BCE010A960E94062481112BC089E03E
:104C4000FE013A96DE01119601900D928A95E1F7E8
:104C50002091BB024091BC028E858823D9F030E0C0
:104C6000C90101968770992750E084179507E9F0EC
:104C700099E0929FD001939FB00D1124A354BD4F92
:104C8000FE01319601900D929A95E1F78093BB0257
:104C90000E94D80419E08091BC029091BB02891354
:104CA00012C06296E4E00C9493350E9409121092AF
:104CB000BB021092BC0289E0E5E0F3E0DF011D9247
:104CC0008A95E9F7E7CF189FC001112483549D4FBF
:104CD0000E940624882329F38091BC0290E001966B
:104CE000877099278093BC02D6CFEF92FF920F93E3
:104CF0001F93CF93DF938091F903E091F801CDE00A
:104D0000811131C0CDB7DEB7E6E00C949135D1E02A
:104D1000DE0FD093F801EE2EF12CCE9FF00111247E
:104D2000EF56FC4F84818823E9F087819085892B99
:104D300021F481859285019659F4008111812281A7
:104D40003381448155816681778180850E940A265E
:104D5000CE9DF001CF9DF00D1124EF56FC4F148233
:104D600010926C03ED2F8091F903E81780F21092F6
:104D7000F9031092F801C6CFA4E0B0E0E2ECF6E24D
:104D80000C946A3520919003298317E0912E01E05D
:104D900010E08DE0382E94E0492E552453948091F4
:104DA0008F039981891308C00E9475260E94E00A2A
:104DB0002496E1E10C9486355981452F50E05C83BF
:104DC0004B83FA01EE0FFF1FEB57FC4F808191815F
:104DD000989ED001999EB00D1124FD01E059FC4F21
:104DE000FA83E983248121115DC07090F903E1E920
:104DF000F3E060E070E0812C671508F051C0A384F7
:104E0000B484A981BA81CD90DC904FEF5FEF612C23
:104E1000262D30E07901EE0CFF1CEC0CFD1CD701B7
:104E2000ED90FC90E114F10439F0AE14BF0409F0E8
:104E30009A016394A901ECCF4F3F5407E1F1D801E7
:104E400002C0AA0FBB1F4A95E2F78A2AA801062CC6
:104E500002C0440F551F0A94E2F79A01215031090C
:104E6000482D50E02417350729F5369EF001379E6E
:104E7000F00D1124EF56FC4F989ED001999EB00D75
:104E80001124A059BC4F12962D913C911397308755
:104E900027834482108211829287818715965C92C3
:104EA0000E94F10A8B819C8101969A838983837089
:104EB000898375CF14826F5F7F4F3D969DCF10928F
:104EC000FB031092FA031092250180918F038093C7
:104ED00090030E94E00A0E9475260895ACE1B0E0BC
:104EE000E4E7F7E20C9469354B8B5C8B6D8B7E8B22
:104EF0008F8B988F882349F080912404909125040A
:104F000001969093250480932404588C511010929C
:104F10006C03188A198A1A8A86E0FE017396DE01EC
:104F20001A9601900D928A95E1F78091230482FFF1
:104F300021C08091000490910104892BD9F00E9436
:104F4000DF0B20916E0330916F03821B930B209136
:104F50000004309101048217930738F080916D03AB
:104F600082FD03C082E00E94E2040E94EB0B8111EB
:104F70000E940C058E858823A1F061E0CE010A967F
:104F80000E94151061E0CE010A960E9415105C0186
:104F900080352CE7920789F4552011F181E0809348
:104FA00025010A851B852C853D854E855F85688991
:104FB00079898A890E940A26C8C081353CE793070F
:104FC00029F4552069F00E945F27EBCF82359C477A
:104FD00039F4552029F0809125018111F4CFDECFDD
:104FE00080E7E82E83E0F82E412C812C912C66245A
:104FF0006394712CD7014D915C91CC24CA94DD242B
:10500000DA9420E0822F90E0FC01EE0FFF1FE40F06
:10501000F51F608171816115710539F0A616B7061B
:1050200009F0C6012F5F6C01EDCFBFEFCB16DB0699
:1050300009F473C1F701548135814681511104C1CE
:1050400080912501882309F411C1552009F40EC16E
:105050000091140410911504311114C081E090E006
:105060000C2C01C0880F0A94EAF7482B46838091E4
:105070008D0390918E038017910720F410938E0377
:1050800000938D03A30102C0440F551F2A95E2F738
:105090009A0121503109D70116968C9190E028177A
:1050A000390709F072C08091FA039091FB030097D1
:1050B00009F44FC00E949C0C0817190708F049C05A
:1050C00081E0F7018483482ABFEF8B1A9B0AE7E04F
:1050D000EE0EF11CF3E08F16910409F08BCF5520F2
:1050E00009F42FC1442009F41AC10E94DF0B9093E8
:1050F000FB038093FA038091F903883030F591E047
:10510000980F9093F90399E0FE013A96DE0111960B
:1051100001900D929A95E1F72DE0829FC001112434
:105120008F569C4F29E0FE013196DC0101900D92D3
:105130002A95E1F72FEF3FEFDC011A963C932E936F
:1051400019971C96BC92AE921B976C96E2E10C9458
:1051500085352091900380918F03922FE0E0F0E05D
:105160006701281314C090939003EE15FF0569F0B2
:1051700090E0FC01EE0FFF1FEB57FC4F9182808205
:1051800001968370992780938F03852D9CCF022FE2
:1051900010E0F801EE0FFF1FEB57FC4F60817181AB
:1051A000F7E0F69FD001F79FB00D1124A059BC4F36
:1051B0004D915C9111975C8F4B8F50E030E040E057
:1051C000E42FF0E0EE0FFF1F6B8D7C8DE60FF71FD5
:1051D0002080318021143104E1F0F7010190F08149
:1051E000E02DFA8FE98F30E005C02616370609F466
:1051F000552D3F5FE32FF0E0EE0FFF1F698D7A8D95
:10520000E60FF71F608171816115710571F74F5FBE
:10521000D7CF5523B1F0F601341708F0FD0131E086
:105220003483EE15FF0509F49ECF921305C0EA17EB
:10523000FB0711F49F5F937098012F5F3F4F23701E
:1052400090CFE0E0F0E0F8CF50E031112FC0B30193
:1052500002C0660F771F2A95E2F7CB0101978417EA
:10526000950799F4C4010E94F10A0FC050E0311172
:105270001DC0D30102C0AA0FBB1F2A95E2F79D01F2
:10528000215031092417350709F080E0F30102C0ED
:10529000EE0FFF1FCA94E2F76F01C094D701169674
:1052A0009C9116979C2116969C930DCFCA010C2CAD
:1052B00002C0959587950A94E2F79A012150310929
:1052C00024233523232B39F580FF25C0F701828164
:1052D0009381892BD9F087E0FE013196DF011D9281
:1052E0008A95E9F70E94DF0B9C018B839C8384E005
:1052F0008D83F70192818381792F9887898709812E
:105300001A8144E05E816F810E940A26D7011596BA
:105310001C9281E0BBCF8170B9CF80E0D4CE909158
:10532000900380918F03981309C00E9475261092F4
:10533000FB031092FA030E94E00A33CE0E94BC26BF
:1053400030CE9091900380918F03981729F00E949E
:10535000BC264110FACE25CE0E9475261092FB0382
:105360001092FA030E94E00AF4CFA6E0B0E0EBEB63
:10537000F9E20C9477350E94DF0B8C0180918F024B
:10538000909190028017910779F019821A820E94F9
:10539000DF0BBC0149815A8180E090E00E946E27BA
:1053A0001093900200938F022696E4E00C949335BC
:1053B000A6E0B0E0EEEDF9E20C94793590938C0222
:1053C00080938B02811520E2920730F40E945711DE
:1053D0002696E2E00C94953580EF89838A830E94BB
:1053E000DF0B8160BC0149815A8181E091E00E941C
:1053F0006E27EECFA6E0B0E0E0E0FAE20C9479355B
:1054000090938C0280938B02811520E2920730F4F6
:105410000E94CE112696E2E00C94953580EF8983A8
:105420008A830E94DF0B8160BC0149815A8181E03F
:1054300090E00E946E27EECFCF93DF93D82FC92F35
:105440000E94D82980911C0490911D040E94170E7F
:105450008D2F9C2F0E94FA29DF91CF9108950F93F1
:105460001F93CF93DF938C01862F60E273E00E943D
:105470005118892BB1F4C0912003D09121032097BA
:1054800081F0F8018281833051F4CE010E941C2A00
:10549000CE010E941C2ACE010E941C2A02C0843028
:1054A000D0F7DF91CF911F910F9108950F931F9324
:1054B000CF93DF938C01EB0160E273E08C2F0E94AD
:1054C0005118892B09F05AC0FE01FF27D801129606
:1054D0008C911297EA5BFD4F8130A9F415968C915F
:1054E00082FD51C080FF4FC082E080838091220303
:1054F000909123030097B9F48091200390912103A8
:105500000097E1F110C08230B9F515968C9182FDBB
:1055100028C080FD0BC083E080838091240390919C
:105520002503009701F10E94D82928C084E08083D8
:1055300080912603909127030097A9F7809120037B
:1055400090912103009711F10E941C2A809122035F
:1055500090912303009739F78091200390912103C4
:10556000E2CF85E080838091200390912103009712
:1055700029F00E941C2AF0CF86E08083DF91CF9132
:105580001F910F91089581E08083B6CF809122030F
:1055900090912303B5CF0F931F93CF93DF938C018B
:1055A000EB0160E273E08C2F0E945118892BA1F46B
:1055B00080911C0490911D040E94170EDD27CA5B88
:1055C000DD4F8881F801128218828330F1F048F4AF
:1055D000813059F0823081F0DF91CF911F910F918E
:1055E00008958430B9F08530B9F780912003909107
:1055F0002103009789F306C0809122039091230331
:10560000009799F30E94FA29E7CF809124039091A3
:105610002503F6CF8091260390912703009791F7F9
:105620002091200330912103809122039091230344
:1056300021153105F1F2009729F7C901E3CF9C014B
:10564000CB01BA01F901329645915491641775075F
:1056500048F0F9013496659174910E94553680E0C6
:1056600090E008958FEF9FEF08959C01DA01029674
:10567000FC0145915491FC0185919491A817B907BB
:1056800058F0F9013496859194910E9455360E9404
:105690001A0F80E090E008958FEF9FEF0895A8E043
:1056A000B0E0E5E5FBE20C946D35FE01319688E053
:1056B000DF011D928A95E9F799E6A92E91E0B92EAE
:1056C0008F012DE6E22E21E0F22E3F01CC24C3947F
:1056D000D12CF50181915F018F3F09F447C0F89407
:1056E000E82FE295EF70F0E021A18F70A60102C0D3
:1056F000440F551F8A95E2F7CA01922F982B91A368
:1057000092A18095892382A3789400C0EDE6F1E010
:1057100021E030E0812C912C41914F3F09F44AC0A7
:10572000A42FA295AF70A05EB0E08C9190E04F7076
:1057300002C0959587954A95E2F7817081113AC02C
:10574000C901882A992A220F331F51E0E837F5074B
:1057500019F7F501319780818F3F11F00E942507DD
:1057600080EA8A95F1F7D8018D929C920E5F1F4FC7
:10577000EA14FB0409F0ADCF48E050E0B30183E642
:1057800092E00E944836892BC1F088E0F301A3E63D
:10579000B2E001900D928A95E1F781E08093DA0101
:1057A0000E94DF0B9093D9018093D8012896EEE0F8
:1057B0000C94893580E090E0C4CF8091DA01882391
:1057C000A9F38091D8019091D9010E949C0C059772
:1057D00068F348E050E063E672E082E892E00E94FD
:1057E0004836892B49F088E0E3E6F2E0A2E8B2E02F
:1057F00001900D928A95E1F71092DA01D7CFCDB7DB
:10580000DEB7AE970FB6F894DEBF0FBECDBF85B73B
:10581000806885BF85B7806885BF84B7877F84BF70
:105820000FB6F894A895809160008861809360001D
:10583000109260000FBE80E890E00FB6F89480935D
:105840006100909361000FBE81E08093230183E2A9
:1058500097E09093AF018093AE010E94120A0E94DC
:105860000D180E94370F0E94660D0E94BC0D80919A
:10587000E20084608093E200789480918A02882319
:1058800099F08091E9001091EC0017951127179578
:105890008F70182B1092E9008091E80083FD0E9420
:1058A00005131F701093E90082E084BD93E095BD5D
:1058B0009AEF97BD80936E000E942110811102C063
:1058C0000E94FD1787EF0E94250781E30E942507AC
:1058D00084E90E94250780E90E9425070DE611E072
:1058E000D8018D918D018F3F11F00E942507B1E005
:1058F00008371B07A9F788E0E2E8F2E0DF01282F6C
:105900001D922A95E9F7E3E6F2E0DF011D928A9500
:10591000E9F780E090E00E948336853E9E4F21F4B7
:105920000E942110811163C065EE7EEF80E090E05F
:105930000E94B73660E082E090E00E94993681E0F4
:105940008093FC0361E083E090E00E94993660E080
:1059500074E184E090E00E94B73660E086E090E079
:105960000E94993660E087E090E00E94993640E01E
:1059700050E0BA0188E090E00E94AB3660E083E23C
:1059800090E00E94993660E08CE090E00E949936A9
:1059900060E08DE090E00E94993619821A821B82A5
:1059A0001C821D821E821F82188648E050E067E13B
:1059B00070E0CE0101960E94893640E050E0BA01C5
:1059C0008FE190E00E94AB3680E00E94FC0E0E94C6
:1059D000FD1740E050E0BA018FE090E00E94AB3646
:1059E00040E050E0BA0183E190E00E94AB3682E0F3
:1059F00090E00E9475368093700284E090E00E94EF
:105A0000833690932304809322040E944F2BEFEF60
:105A1000F6E721E0E150F0402040E1F700C000004F
:105A20000E944F2B8091820280FF08C06FEF7FEFB2
:105A300080E090E00E94B7360E94AB0C83E090E0DB
:105A40000E9475360E942A0480916B02811198C0D1
:105A500088E090E00E947D366B017C0183E290E05B
:105A60000E947536282F30E040E050E060E070E0A2
:105A700080E090E000E20E94A035F22FA32EB42E29
:105A8000B52FA62FE72F9701860140E050E0BA011D
:105A9000FC29A12AB22AB32BA42BE52B862B972B0A
:105AA000F0935F03A0926003B0926103B09362032E
:105AB000A0936303E093640380936503909366036C
:105AC000F43008F04BC025E020935F031092600390
:105AD0002FEF20936103209362031092630325E06C
